{
  "_format": "hh-sol-artifact-1",
  "contractName": "BuyMeACoffee",
  "sourceName": "contracts/BuyMeACoffee.sol",
  "abi": [
    {
      "inputs": [],
      "stateMutability": "nonpayable",
      "type": "constructor"
    },
    {
      "anonymous": false,
      "inputs": [
        {
          "indexed": true,
          "internalType": "address",
          "name": "owner",
          "type": "address"
        },
        {
          "indexed": true,
          "internalType": "address",
          "name": "approved",
          "type": "address"
        },
        {
          "indexed": true,
          "internalType": "uint256",
          "name": "tokenId",
          "type": "uint256"
        }
      ],
      "name": "Approval",
      "type": "event"
    },
    {
      "anonymous": false,
      "inputs": [
        {
          "indexed": true,
          "internalType": "address",
          "name": "owner",
          "type": "address"
        },
        {
          "indexed": true,
          "internalType": "address",
          "name": "operator",
          "type": "address"
        },
        {
          "indexed": false,
          "internalType": "bool",
          "name": "approved",
          "type": "bool"
        }
      ],
      "name": "ApprovalForAll",
      "type": "event"
    },
    {
      "anonymous": false,
      "inputs": [
        {
          "indexed": true,
          "internalType": "address",
          "name": "from",
          "type": "address"
        },
        {
          "indexed": false,
          "internalType": "uint256",
          "name": "timestamp",
          "type": "uint256"
        },
        {
          "indexed": false,
          "internalType": "string",
          "name": "name",
          "type": "string"
        },
        {
          "indexed": false,
          "internalType": "string",
          "name": "message",
          "type": "string"
        },
        {
          "indexed": false,
          "internalType": "uint256",
          "name": "price",
          "type": "uint256"
        }
      ],
      "name": "NewMemo",
      "type": "event"
    },
    {
      "anonymous": false,
      "inputs": [
        {
          "indexed": true,
          "internalType": "address",
          "name": "from",
          "type": "address"
        },
        {
          "indexed": true,
          "internalType": "address",
          "name": "to",
          "type": "address"
        },
        {
          "indexed": true,
          "internalType": "uint256",
          "name": "tokenId",
          "type": "uint256"
        }
      ],
      "name": "Transfer",
      "type": "event"
    },
    {
      "inputs": [
        {
          "internalType": "address",
          "name": "to",
          "type": "address"
        },
        {
          "internalType": "uint256",
          "name": "tokenId",
          "type": "uint256"
        }
      ],
      "name": "approve",
      "outputs": [],
      "stateMutability": "nonpayable",
      "type": "function"
    },
    {
      "inputs": [
        {
          "internalType": "address",
          "name": "owner",
          "type": "address"
        }
      ],
      "name": "balanceOf",
      "outputs": [
        {
          "internalType": "uint256",
          "name": "",
          "type": "uint256"
        }
      ],
      "stateMutability": "view",
      "type": "function"
    },
    {
      "inputs": [
        {
          "internalType": "string",
          "name": "_name",
          "type": "string"
        },
        {
          "internalType": "string",
          "name": "_message",
          "type": "string"
        }
      ],
      "name": "buyCoffee",
      "outputs": [],
      "stateMutability": "payable",
      "type": "function"
    },
    {
      "inputs": [],
      "name": "currentId",
      "outputs": [
        {
          "internalType": "uint256",
          "name": "",
          "type": "uint256"
        }
      ],
      "stateMutability": "view",
      "type": "function"
    },
    {
      "inputs": [
        {
          "internalType": "uint256",
          "name": "tokenId",
          "type": "uint256"
        }
      ],
      "name": "getApproved",
      "outputs": [
        {
          "internalType": "address",
          "name": "",
          "type": "address"
        }
      ],
      "stateMutability": "view",
      "type": "function"
    },
    {
      "inputs": [
        {
          "internalType": "uint256",
          "name": "_tokenId",
          "type": "uint256"
        }
      ],
      "name": "getImage",
      "outputs": [
        {
          "internalType": "string",
          "name": "",
          "type": "string"
        }
      ],
      "stateMutability": "view",
      "type": "function"
    },
    {
      "inputs": [],
      "name": "getMemos",
      "outputs": [
        {
          "components": [
            {
              "internalType": "address",
              "name": "from",
              "type": "address"
            },
            {
              "internalType": "uint256",
              "name": "timestamp",
              "type": "uint256"
            },
            {
              "internalType": "string",
              "name": "name",
              "type": "string"
            },
            {
              "internalType": "string",
              "name": "message",
              "type": "string"
            },
            {
              "internalType": "uint256",
              "name": "price",
              "type": "uint256"
            }
          ],
          "internalType": "struct BuyMeACoffee.Memo[]",
          "name": "",
          "type": "tuple[]"
        }
      ],
      "stateMutability": "view",
      "type": "function"
    },
    {
      "inputs": [
        {
          "internalType": "address",
          "name": "owner",
          "type": "address"
        },
        {
          "internalType": "address",
          "name": "operator",
          "type": "address"
        }
      ],
      "name": "isApprovedForAll",
      "outputs": [
        {
          "internalType": "bool",
          "name": "",
          "type": "bool"
        }
      ],
      "stateMutability": "view",
      "type": "function"
    },
    {
      "inputs": [],
      "name": "name",
      "outputs": [
        {
          "internalType": "string",
          "name": "",
          "type": "string"
        }
      ],
      "stateMutability": "view",
      "type": "function"
    },
    {
      "inputs": [],
      "name": "owner",
      "outputs": [
        {
          "internalType": "address payable",
          "name": "",
          "type": "address"
        }
      ],
      "stateMutability": "view",
      "type": "function"
    },
    {
      "inputs": [
        {
          "internalType": "uint256",
          "name": "tokenId",
          "type": "uint256"
        }
      ],
      "name": "ownerOf",
      "outputs": [
        {
          "internalType": "address",
          "name": "",
          "type": "address"
        }
      ],
      "stateMutability": "view",
      "type": "function"
    },
    {
      "inputs": [
        {
          "internalType": "address",
          "name": "from",
          "type": "address"
        },
        {
          "internalType": "address",
          "name": "to",
          "type": "address"
        },
        {
          "internalType": "uint256",
          "name": "tokenId",
          "type": "uint256"
        }
      ],
      "name": "safeTransferFrom",
      "outputs": [],
      "stateMutability": "nonpayable",
      "type": "function"
    },
    {
      "inputs": [
        {
          "internalType": "address",
          "name": "from",
          "type": "address"
        },
        {
          "internalType": "address",
          "name": "to",
          "type": "address"
        },
        {
          "internalType": "uint256",
          "name": "tokenId",
          "type": "uint256"
        },
        {
          "internalType": "bytes",
          "name": "_data",
          "type": "bytes"
        }
      ],
      "name": "safeTransferFrom",
      "outputs": [],
      "stateMutability": "nonpayable",
      "type": "function"
    },
    {
      "inputs": [
        {
          "internalType": "address",
          "name": "operator",
          "type": "address"
        },
        {
          "internalType": "bool",
          "name": "approved",
          "type": "bool"
        }
      ],
      "name": "setApprovalForAll",
      "outputs": [],
      "stateMutability": "nonpayable",
      "type": "function"
    },
    {
      "inputs": [
        {
          "internalType": "bytes4",
          "name": "interfaceId",
          "type": "bytes4"
        }
      ],
      "name": "supportsInterface",
      "outputs": [
        {
          "internalType": "bool",
          "name": "",
          "type": "bool"
        }
      ],
      "stateMutability": "view",
      "type": "function"
    },
    {
      "inputs": [],
      "name": "symbol",
      "outputs": [
        {
          "internalType": "string",
          "name": "",
          "type": "string"
        }
      ],
      "stateMutability": "view",
      "type": "function"
    },
    {
      "inputs": [
        {
          "internalType": "uint256",
          "name": "tokenId",
          "type": "uint256"
        }
      ],
      "name": "tokenURI",
      "outputs": [
        {
          "internalType": "string",
          "name": "",
          "type": "string"
        }
      ],
      "stateMutability": "view",
      "type": "function"
    },
    {
      "inputs": [
        {
          "internalType": "address",
          "name": "from",
          "type": "address"
        },
        {
          "internalType": "address",
          "name": "to",
          "type": "address"
        },
        {
          "internalType": "uint256",
          "name": "tokenId",
          "type": "uint256"
        }
      ],
      "name": "transferFrom",
      "outputs": [],
      "stateMutability": "nonpayable",
      "type": "function"
    },
    {
      "inputs": [],
      "name": "withdrawTips",
      "outputs": [],
      "stateMutability": "nonpayable",
      "type": "function"
    }
  ],
  "bytecode": "0x608060405260016006553480156200001657600080fd5b50604080518082018252600b81526a436f666665654d656d6f7360a81b60208083019182528351808501909452600384526204355560ec1b908401528151919291620000659160009162000096565b5080516200007b90600190602084019062000096565b5050600780546001600160a01b031916331790555062000179565b828054620000a4906200013c565b90600052602060002090601f016020900481019282620000c8576000855562000113565b82601f10620000e357805160ff191683800117855562000113565b8280016001018555821562000113579182015b8281111562000113578251825591602001919060010190620000f6565b506200012192915062000125565b5090565b5b8082111562000121576000815560010162000126565b600181811c908216806200015157607f821691505b602082108114156200017357634e487b7160e01b600052602260045260246000fd5b50919050565b6131ec80620001896000396000f3fe6080604052600436106101445760003560e01c80636352211e116100c0578063a22cb46511610074578063c87b56dd11610059578063c87b56dd14610381578063e00dd161146103a1578063e985e9c5146103b757600080fd5b8063a22cb46514610341578063b88d4fde1461036157600080fd5b8063865c5172116100a5578063865c5172146102dd5780638da5cb5b146102ff57806395d89b411461032c57600080fd5b80636352211e1461028f57806370a08231146102af57600080fd5b8063204206e1116101175780632607aafa116100fc5780632607aafa1461023a5780633aaa74b21461025a57806342842e0e1461026f57600080fd5b8063204206e11461020757806323b872dd1461021a57600080fd5b806301ffc9a71461014957806306fdde031461017e578063081812fc146101a0578063095ea7b3146101e5575b600080fd5b34801561015557600080fd5b506101696101643660046125b7565b61040d565b60405190151581526020015b60405180910390f35b34801561018a57600080fd5b506101936104f2565b604051610175919061262c565b3480156101ac57600080fd5b506101c06101bb36600461263f565b610584565b60405173ffffffffffffffffffffffffffffffffffffffff9091168152602001610175565b3480156101f157600080fd5b50610205610200366004612681565b610649565b005b610205610215366004612770565b6107a2565b34801561022657600080fd5b506102056102353660046127d4565b6109bb565b34801561024657600080fd5b5061019361025536600461263f565b610a42565b34801561026657600080fd5b5061020561136f565b34801561027b57600080fd5b5061020561028a3660046127d4565b6113af565b34801561029b57600080fd5b506101c06102aa36600461263f565b6113ca565b3480156102bb57600080fd5b506102cf6102ca366004612810565b611462565b604051908152602001610175565b3480156102e957600080fd5b506102f2611516565b604051610175919061282b565b34801561030b57600080fd5b506007546101c09073ffffffffffffffffffffffffffffffffffffffff1681565b34801561033857600080fd5b506101936116d0565b34801561034d57600080fd5b5061020561035c366004612906565b6116df565b34801561036d57600080fd5b5061020561037c366004612942565b6116ee565b34801561038d57600080fd5b5061019361039c36600461263f565b61177c565b3480156103ad57600080fd5b506102cf60065481565b3480156103c357600080fd5b506101696103d23660046129be565b73ffffffffffffffffffffffffffffffffffffffff918216600090815260056020908152604080832093909416825291909152205460ff1690565b60007fffffffff0000000000000000000000000000000000000000000000000000000082167f80ac58cd0000000000000000000000000000000000000000000000000000000014806104a057507fffffffff0000000000000000000000000000000000000000000000000000000082167f5b5e139f00000000000000000000000000000000000000000000000000000000145b806104ec57507f01ffc9a7000000000000000000000000000000000000000000000000000000007fffffffff000000000000000000000000000000000000000000000000000000008316145b92915050565b606060008054610501906129f1565b80601f016020809104026020016040519081016040528092919081815260200182805461052d906129f1565b801561057a5780601f1061054f5761010080835404028352916020019161057a565b820191906000526020600020905b81548152906001019060200180831161055d57829003601f168201915b5050505050905090565b60008181526002602052604081205473ffffffffffffffffffffffffffffffffffffffff166106205760405162461bcd60e51b815260206004820152602c60248201527f4552433732313a20617070726f76656420717565727920666f72206e6f6e657860448201527f697374656e7420746f6b656e000000000000000000000000000000000000000060648201526084015b60405180910390fd5b5060009081526004602052604090205473ffffffffffffffffffffffffffffffffffffffff1690565b6000610654826113ca565b90508073ffffffffffffffffffffffffffffffffffffffff168373ffffffffffffffffffffffffffffffffffffffff1614156106f85760405162461bcd60e51b815260206004820152602160248201527f4552433732313a20617070726f76616c20746f2063757272656e74206f776e6560448201527f72000000000000000000000000000000000000000000000000000000000000006064820152608401610617565b3373ffffffffffffffffffffffffffffffffffffffff82161480610721575061072181336103d2565b6107935760405162461bcd60e51b815260206004820152603860248201527f4552433732313a20617070726f76652063616c6c6572206973206e6f74206f7760448201527f6e6572206e6f7220617070726f76656420666f7220616c6c00000000000000006064820152608401610617565b61079d8383611827565b505050565b600034116107f25760405162461bcd60e51b815260206004820152601a60248201527f63616e27742062757920636f6666656520666f722066726565210000000000006044820152606401610617565b6040805160a0810182523381524260208083019182529282018581526060830185905234608084015260088054600181018255600091909152835160059091027ff3f7a9fe364faab93b216da50a3214154f22a0a2b415b23a84c8169e8b636ee38101805473ffffffffffffffffffffffffffffffffffffffff939093167fffffffffffffffffffffffff000000000000000000000000000000000000000090931692909217825592517ff3f7a9fe364faab93b216da50a3214154f22a0a2b415b23a84c8169e8b636ee484015590518051939491936108f9937ff3f7a9fe364faab93b216da50a3214154f22a0a2b415b23a84c8169e8b636ee5019291909101906124ed565b50606082015180516109159160038401916020909101906124ed565b506080919091015160049091015560085461093290600190612a74565b6006805460009081526009602052604081209290925580546109639233929061095a83612a8b565b919050556118c7565b3373ffffffffffffffffffffffffffffffffffffffff167fe6609e3b36bf3d0e12aa4c5b518055c81016d4f091e4fa2be01ff5f2690512bb428484346040516109af9493929190612ac4565b60405180910390a25050565b6109c53382611a55565b610a375760405162461bcd60e51b815260206004820152603160248201527f4552433732313a207472616e736665722063616c6c6572206973206e6f74206f60448201527f776e6572206e6f7220617070726f7665640000000000000000000000000000006064820152608401610617565b61079d838383611bab565b60008181526002602052604090205460609073ffffffffffffffffffffffffffffffffffffffff16610a7357600080fd5b600082815260096020526040812054600880549091908110610a9757610a97612b01565b90600052602060002090600502016040518060a00160405290816000820160009054906101000a900473ffffffffffffffffffffffffffffffffffffffff1673ffffffffffffffffffffffffffffffffffffffff1673ffffffffffffffffffffffffffffffffffffffff16815260200160018201548152602001600282018054610b20906129f1565b80601f0160208091040260200160405190810160405280929190818152602001828054610b4c906129f1565b8015610b995780601f10610b6e57610100808354040283529160200191610b99565b820191906000526020600020905b815481529060010190602001808311610b7c57829003601f168201915b50505050508152602001600382018054610bb2906129f1565b80601f0160208091040260200160405190810160405280929190818152602001828054610bde906129f1565b8015610c2b5780601f10610c0057610100808354040283529160200191610c2b565b820191906000526020600020905b815481529060010190602001808311610c0e57829003601f168201915b50505050508152602001600482015481525050905060006040518060c00160405280608581526020016131326085913990506000610c6c8360800151611dde565b604051602001610c7c9190612b30565b604051602081830303815290604052905081610edf610d056040518060400160405280600181526020017f78000000000000000000000000000000000000000000000000000000000000008152506040518060400160405280600281526020017f3430000000000000000000000000000000000000000000000000000000000000815250611f3b565b610d796040518060400160405280600181526020017f79000000000000000000000000000000000000000000000000000000000000008152506040518060400160405280600381526020017f3230300000000000000000000000000000000000000000000000000000000000815250611f3b565b610ded6040518060400160405280600981526020017f666f6e742d73697a6500000000000000000000000000000000000000000000008152506040518060400160405280600281526020017f3530000000000000000000000000000000000000000000000000000000000000815250611f3b565b610e616040518060400160405280600481526020017f66696c6c000000000000000000000000000000000000000000000000000000008152506040518060400160405280600581526020017f7768697465000000000000000000000000000000000000000000000000000000815250611f3b565b604051602001610e749493929190612b9c565b60408051601f19818403018152828201909152601582527f4920626f75676874206120636f6666656520666f720000000000000000000000602083015290610ebb90611f67565b604051602001610ecb9190612bf3565b604051602081830303815290604052611f90565b6110dd610f566040518060400160405280600181526020017f78000000000000000000000000000000000000000000000000000000000000008152506040518060400160405280600281526020017f3430000000000000000000000000000000000000000000000000000000000000815250611f3b565b610fca6040518060400160405280600181526020017f79000000000000000000000000000000000000000000000000000000000000008152506040518060400160405280600381526020017f3237300000000000000000000000000000000000000000000000000000000000815250611f3b565b61103e6040518060400160405280600981526020017f666f6e742d73697a6500000000000000000000000000000000000000000000008152506040518060400160405280600281526020017f3530000000000000000000000000000000000000000000000000000000000000815250611f3b565b6110b26040518060400160405280600481526020017f66696c6c000000000000000000000000000000000000000000000000000000008152506040518060400160405280600581526020017f7768697465000000000000000000000000000000000000000000000000000000815250611f3b565b6040516020016110c59493929190612b9c565b604051602081830303815290604052610ebb85611f67565b6112df6111546040518060400160405280600181526020017f78000000000000000000000000000000000000000000000000000000000000008152506040518060400160405280600381526020017f3133300000000000000000000000000000000000000000000000000000000000815250611f3b565b6111c86040518060400160405280600181526020017f79000000000000000000000000000000000000000000000000000000000000008152506040518060400160405280600381526020017f3435300000000000000000000000000000000000000000000000000000000000815250611f3b565b61123c6040518060400160405280600981526020017f666f6e742d73697a6500000000000000000000000000000000000000000000008152506040518060400160405280600281526020017f3530000000000000000000000000000000000000000000000000000000000000815250611f3b565b6112b06040518060400160405280600481526020017f66696c6c000000000000000000000000000000000000000000000000000000008152506040518060400160405280600581526020017f626c61636b000000000000000000000000000000000000000000000000000000815250611f3b565b6040516020016112c39493929190612b9c565b604051602081830303815290604052610ebb8860400151611f67565b6040516020016112f29493929190612c0f565b60408051601f19818403018152828201909152601a82527f646174613a696d6167652f7376672b786d6c3b6261736536342c00000000000060208301529250600061133c84611fd9565b905060008282604051602001611353929190612c8e565b60408051601f1981840301815291905298975050505050505050565b60075460405173ffffffffffffffffffffffffffffffffffffffff909116904780156108fc02916000818181858888f193505050506113ad57600080fd5b565b61079d838383604051806020016040528060008152506116ee565b60008181526002602052604081205473ffffffffffffffffffffffffffffffffffffffff16806104ec5760405162461bcd60e51b815260206004820152602960248201527f4552433732313a206f776e657220717565727920666f72206e6f6e657869737460448201527f656e7420746f6b656e00000000000000000000000000000000000000000000006064820152608401610617565b600073ffffffffffffffffffffffffffffffffffffffff82166114ed5760405162461bcd60e51b815260206004820152602a60248201527f4552433732313a2062616c616e636520717565727920666f7220746865207a6560448201527f726f2061646472657373000000000000000000000000000000000000000000006064820152608401610617565b5073ffffffffffffffffffffffffffffffffffffffff1660009081526003602052604090205490565b60606008805480602002602001604051908101604052809291908181526020016000905b828210156116c75760008481526020908190206040805160a08101825260058602909201805473ffffffffffffffffffffffffffffffffffffffff1683526001810154938301939093526002830180549293929184019161159a906129f1565b80601f01602080910402602001604051908101604052809291908181526020018280546115c6906129f1565b80156116135780601f106115e857610100808354040283529160200191611613565b820191906000526020600020905b8154815290600101906020018083116115f657829003601f168201915b5050505050815260200160038201805461162c906129f1565b80601f0160208091040260200160405190810160405280929190818152602001828054611658906129f1565b80156116a55780601f1061167a576101008083540402835291602001916116a5565b820191906000526020600020905b81548152906001019060200180831161168857829003601f168201915b505050505081526020016004820154815250508152602001906001019061153a565b50505050905090565b606060018054610501906129f1565b6116ea33838361212d565b5050565b6116f83383611a55565b61176a5760405162461bcd60e51b815260206004820152603160248201527f4552433732313a207472616e736665722063616c6c6572206973206e6f74206f60448201527f776e6572206e6f7220617070726f7665640000000000000000000000000000006064820152608401610617565b61177684848484612241565b50505050565b60008181526002602052604090205460609073ffffffffffffffffffffffffffffffffffffffff166118165760405162461bcd60e51b815260206004820152602f60248201527f4552433732314d657461646174613a2055524920717565727920666f72206e6f60448201527f6e6578697374656e7420746f6b656e00000000000000000000000000000000006064820152608401610617565b6104ec61182283610a42565b6122ca565b600081815260046020526040902080547fffffffffffffffffffffffff00000000000000000000000000000000000000001673ffffffffffffffffffffffffffffffffffffffff84169081179091558190611881826113ca565b73ffffffffffffffffffffffffffffffffffffffff167f8c5be1e5ebec7d5bd14f71427d1e84f3dd0314c0f7b2291e5b200ac8c7c3b92560405160405180910390a45050565b73ffffffffffffffffffffffffffffffffffffffff821661192a5760405162461bcd60e51b815260206004820181905260248201527f4552433732313a206d696e7420746f20746865207a65726f20616464726573736044820152606401610617565b60008181526002602052604090205473ffffffffffffffffffffffffffffffffffffffff161561199c5760405162461bcd60e51b815260206004820152601c60248201527f4552433732313a20746f6b656e20616c7265616479206d696e746564000000006044820152606401610617565b73ffffffffffffffffffffffffffffffffffffffff821660009081526003602052604081208054600192906119d2908490612cbd565b909155505060008181526002602052604080822080547fffffffffffffffffffffffff00000000000000000000000000000000000000001673ffffffffffffffffffffffffffffffffffffffff861690811790915590518392907fddf252ad1be2c89b69c2b068fc378daa952ba7f163c4a11628f55a4df523b3ef908290a45050565b60008181526002602052604081205473ffffffffffffffffffffffffffffffffffffffff16611aec5760405162461bcd60e51b815260206004820152602c60248201527f4552433732313a206f70657261746f7220717565727920666f72206e6f6e657860448201527f697374656e7420746f6b656e00000000000000000000000000000000000000006064820152608401610617565b6000611af7836113ca565b90508073ffffffffffffffffffffffffffffffffffffffff168473ffffffffffffffffffffffffffffffffffffffff161480611b65575073ffffffffffffffffffffffffffffffffffffffff80821660009081526005602090815260408083209388168352929052205460ff165b80611ba357508373ffffffffffffffffffffffffffffffffffffffff16611b8b84610584565b73ffffffffffffffffffffffffffffffffffffffff16145b949350505050565b8273ffffffffffffffffffffffffffffffffffffffff16611bcb826113ca565b73ffffffffffffffffffffffffffffffffffffffff1614611c545760405162461bcd60e51b815260206004820152602560248201527f4552433732313a207472616e736665722066726f6d20696e636f72726563742060448201527f6f776e65720000000000000000000000000000000000000000000000000000006064820152608401610617565b73ffffffffffffffffffffffffffffffffffffffff8216611cdc5760405162461bcd60e51b8152602060048201526024808201527f4552433732313a207472616e7366657220746f20746865207a65726f2061646460448201527f72657373000000000000000000000000000000000000000000000000000000006064820152608401610617565b611ce7600082611827565b73ffffffffffffffffffffffffffffffffffffffff83166000908152600360205260408120805460019290611d1d908490612a74565b909155505073ffffffffffffffffffffffffffffffffffffffff82166000908152600360205260408120805460019290611d58908490612cbd565b909155505060008181526002602052604080822080547fffffffffffffffffffffffff00000000000000000000000000000000000000001673ffffffffffffffffffffffffffffffffffffffff86811691821790925591518493918716917fddf252ad1be2c89b69c2b068fc378daa952ba7f163c4a11628f55a4df523b3ef91a4505050565b606081611e1e57505060408051808201909152600181527f3000000000000000000000000000000000000000000000000000000000000000602082015290565b8160005b8115611e485780611e3281612a8b565b9150611e419050600a83612cd5565b9150611e22565b60008167ffffffffffffffff811115611e6357611e636126ab565b6040519080825280601f01601f191660200182016040528015611e8d576020820181803683370190505b509050815b8515611f3257611ea3600182612a74565b90506000611eb2600a88612cd5565b611ebd90600a612d10565b611ec79088612a74565b611ed2906030612d4d565b905060008160f81b905080848481518110611eef57611eef612b01565b60200101907effffffffffffffffffffffffffffffffffffffffffffffffffffffffffffff1916908160001a905350611f29600a89612cd5565b97505050611e92565b50949350505050565b60608282604051602001611f50929190612d72565b604051602081830303815290604052905092915050565b606081604051602001611f7a9190612e1a565b6040516020818303038152906040529050919050565b6060611fd26040518060400160405280600481526020017f74657874000000000000000000000000000000000000000000000000000000008152508484612304565b9392505050565b6060815160001415611ff957505060408051602081019091526000815290565b60006040518060600160405280604081526020016130f260409139905060006003845160026120289190612cbd565b6120329190612cd5565b61203d906004612d10565b67ffffffffffffffff811115612055576120556126ab565b6040519080825280601f01601f19166020018201604052801561207f576020820181803683370190505b509050600182016020820185865187015b808210156120eb576003820191508151603f8160121c168501518453600184019350603f81600c1c168501518453600184019350603f8160061c168501518453600184019350603f8116850151845350600183019250612090565b5050600386510660018114612107576002811461211a57612122565b603d6001830353603d6002830353612122565b603d60018303535b509195945050505050565b8173ffffffffffffffffffffffffffffffffffffffff168373ffffffffffffffffffffffffffffffffffffffff1614156121a95760405162461bcd60e51b815260206004820152601960248201527f4552433732313a20617070726f766520746f2063616c6c6572000000000000006044820152606401610617565b73ffffffffffffffffffffffffffffffffffffffff83811660008181526005602090815260408083209487168084529482529182902080547fffffffffffffffffffffffffffffffffffffffffffffffffffffffffffffff001686151590811790915591519182527f17307eab39ab6107e8899845ad3d59bd9653f200f220920489ca2b5937696c31910160405180910390a3505050565b61224c848484611bab565b61225884848484612335565b6117765760405162461bcd60e51b815260206004820152603260248201527f4552433732313a207472616e7366657220746f206e6f6e20455243373231526560448201527f63656976657220696d706c656d656e74657200000000000000000000000000006064820152608401610617565b60606122f4826040516020016122e09190612e86565b604051602081830303815290604052611fd9565b604051602001611f7a9190612f3e565b60608383838660405160200161231d9493929190612f83565b60405160208183030381529060405290509392505050565b600073ffffffffffffffffffffffffffffffffffffffff84163b156124e2576040517f150b7a0200000000000000000000000000000000000000000000000000000000815273ffffffffffffffffffffffffffffffffffffffff85169063150b7a02906123ac90339089908890889060040161308b565b6020604051808303816000875af19250505080156123e7575060408051601f3d908101601f191682019092526123e4918101906130d4565b60015b612497573d808015612415576040519150601f19603f3d011682016040523d82523d6000602084013e61241a565b606091505b50805161248f5760405162461bcd60e51b815260206004820152603260248201527f4552433732313a207472616e7366657220746f206e6f6e20455243373231526560448201527f63656976657220696d706c656d656e74657200000000000000000000000000006064820152608401610617565b805181602001fd5b7fffffffff00000000000000000000000000000000000000000000000000000000167f150b7a0200000000000000000000000000000000000000000000000000000000149050611ba3565b506001949350505050565b8280546124f9906129f1565b90600052602060002090601f01602090048101928261251b5760008555612561565b82601f1061253457805160ff1916838001178555612561565b82800160010185558215612561579182015b82811115612561578251825591602001919060010190612546565b5061256d929150612571565b5090565b5b8082111561256d5760008155600101612572565b7fffffffff00000000000000000000000000000000000000000000000000000000811681146125b457600080fd5b50565b6000602082840312156125c957600080fd5b8135611fd281612586565b60005b838110156125ef5781810151838201526020016125d7565b838111156117765750506000910152565b600081518084526126188160208601602086016125d4565b601f01601f19169290920160200192915050565b602081526000611fd26020830184612600565b60006020828403121561265157600080fd5b5035919050565b803573ffffffffffffffffffffffffffffffffffffffff8116811461267c57600080fd5b919050565b6000806040838503121561269457600080fd5b61269d83612658565b946020939093013593505050565b7f4e487b7100000000000000000000000000000000000000000000000000000000600052604160045260246000fd5b600067ffffffffffffffff808411156126f5576126f56126ab565b604051601f8501601f19908116603f0116810190828211818310171561271d5761271d6126ab565b8160405280935085815286868601111561273657600080fd5b858560208301376000602087830101525050509392505050565b600082601f83011261276157600080fd5b611fd2838335602085016126da565b6000806040838503121561278357600080fd5b823567ffffffffffffffff8082111561279b57600080fd5b6127a786838701612750565b935060208501359150808211156127bd57600080fd5b506127ca85828601612750565b9150509250929050565b6000806000606084860312156127e957600080fd5b6127f284612658565b925061280060208501612658565b9150604084013590509250925092565b60006020828403121561282257600080fd5b611fd282612658565b60006020808301818452808551808352604092508286019150828160051b87010184880160005b838110156128f8577fffffffffffffffffffffffffffffffffffffffffffffffffffffffffffffffc0898403018552815160a073ffffffffffffffffffffffffffffffffffffffff825116855288820151898601528782015181898701526128bc82870182612600565b915050606080830151868303828801526128d68382612600565b6080948501519790940196909652505094870194925090860190600101612852565b509098975050505050505050565b6000806040838503121561291957600080fd5b61292283612658565b91506020830135801515811461293757600080fd5b809150509250929050565b6000806000806080858703121561295857600080fd5b61296185612658565b935061296f60208601612658565b925060408501359150606085013567ffffffffffffffff81111561299257600080fd5b8501601f810187136129a357600080fd5b6129b2878235602084016126da565b91505092959194509250565b600080604083850312156129d157600080fd5b6129da83612658565b91506129e860208401612658565b90509250929050565b600181811c90821680612a0557607f821691505b60208210811415612a3f577f4e487b7100000000000000000000000000000000000000000000000000000000600052602260045260246000fd5b50919050565b7f4e487b7100000000000000000000000000000000000000000000000000000000600052601160045260246000fd5b600082821015612a8657612a86612a45565b500390565b60007fffffffffffffffffffffffffffffffffffffffffffffffffffffffffffffffff821415612abd57612abd612a45565b5060010190565b848152608060208201526000612add6080830186612600565b8281036040840152612aef8186612600565b91505082606083015295945050505050565b7f4e487b7100000000000000000000000000000000000000000000000000000000600052603260045260246000fd5b7f54757475727520666f7220000000000000000000000000000000000000000000815260008251612b6881600b8501602087016125d4565b7f2057656900000000000000000000000000000000000000000000000000000000600b939091019283015250600f01919050565b60008551612bae818460208a016125d4565b855190830190612bc2818360208a016125d4565b8551910190612bd58183602089016125d4565b8451910190612be88183602088016125d4565b019695505050505050565b60008251612c058184602087016125d4565b9190910192915050565b60008551612c21818460208a016125d4565b855190830190612c35818360208a016125d4565b8551910190612c488183602089016125d4565b8451910190612c5b8183602088016125d4565b7f3c2f7376673e000000000000000000000000000000000000000000000000000091019081526006019695505050505050565b60008351612ca08184602088016125d4565b835190830190612cb48183602088016125d4565b01949350505050565b60008219821115612cd057612cd0612a45565b500190565b600082612d0b577f4e487b7100000000000000000000000000000000000000000000000000000000600052601260045260246000fd5b500490565b6000817fffffffffffffffffffffffffffffffffffffffffffffffffffffffffffffffff0483118215151615612d4857612d48612a45565b500290565b600060ff821660ff84168060ff03821115612d6a57612d6a612a45565b019392505050565b60008351612d848184602088016125d4565b7f3d000000000000000000000000000000000000000000000000000000000000009083019081527f220000000000000000000000000000000000000000000000000000000000000060018201528351612de48160028401602088016125d4565b7f222000000000000000000000000000000000000000000000000000000000000060029290910191820152600401949350505050565b7f3c215b43444154415b0000000000000000000000000000000000000000000000815260008251612e528160098501602087016125d4565b7f5d5d3e00000000000000000000000000000000000000000000000000000000006009939091019283015250600c01919050565b7f7b226e616d65223a2022584f584f222c20226465736372697074696f6e223a2081527f224f6e20636861696e205469632d5461632d546f65207761722067616d652e2260208201527f2c2022696d616765223a22000000000000000000000000000000000000000000604082015260008251612f0a81604b8501602087016125d4565b7f227d000000000000000000000000000000000000000000000000000000000000604b939091019283015250604d01919050565b7f646174613a6170706c69636174696f6e2f6a736f6e3b6261736536342c000000815260008251612f7681601d8501602087016125d4565b91909101601d0192915050565b7f3c00000000000000000000000000000000000000000000000000000000000000815260008551612fbb816001850160208a016125d4565b7f20000000000000000000000000000000000000000000000000000000000000006001918401918201528551612ff8816002840160208a016125d4565b8082019150507f3e000000000000000000000000000000000000000000000000000000000000008060028301528551613038816003850160208a016125d4565b7f3c2f0000000000000000000000000000000000000000000000000000000000006003939091019283015284516130768160058501602089016125d4565b60059201918201526006019695505050505050565b600073ffffffffffffffffffffffffffffffffffffffff8087168352808616602084015250836040830152608060608301526130ca6080830184612600565b9695505050505050565b6000602082840312156130e657600080fd5b8151611fd28161258656fe4142434445464748494a4b4c4d4e4f505152535455565758595a6162636465666768696a6b6c6d6e6f707172737475767778797a303132333435363738392b2f3c73766720786d6c6e733d22687474703a2f2f7777772e77332e6f72672f323030302f737667222077696474683d223130303022206865696768743d223130303022207374796c653d226261636b67726f756e643a233930363146393b626f726465722d7374796c653a736f6c69643b626f726465722d636f6c6f723a77686974653b223ea26469706673582212202bf58367a70e29859a59d1c843633f903dfb3b93de7f7b179aecf3cd6e4362aa64736f6c634300080c0033",
  "linkReferences": {},
  "deployedLinkReferences": {}
}